:0A000000F3280000000000000028B3
:0E000A008312031324088A00230882000800D2
:1000180083120313FB01FA01F9018030F800F10C97
:10002800F00C031C20287408F90775080318750FCD
:10003800FA070318FB0A0310F01F28287408FA07A8
:1000480075080318750FFB07FB0CFA0CF90CF80C74
:10005800031C13287B08F3007A08F2007908F100E2
:060068007808F00008001A
:10006E0083120313F801F9011030FC00710DF80D25
:10007E00F90D7408F8027508031C750FF9020318C0
:10008E004F287408F80775080318750FF907031041
:0A009E00F00DF10DFC0B3D280800E9
:1000A800831203132508F0002608F100CF30F4006E
:1000B8007F30F5000C200330F0070318F10AED300B
:1000C800F4007F30F50037207808F0007908F10057
:1000D8007008A5007108A6003108F4003208F50080
:0E00E80037207808F0007908F100F00A0800CF
:1000F60005208A110A128000840AA30A0319A40A99
:08010600F003031D7B28080033
:10010E00A428103083120313F0000030F100080011
:10011E002230F0000030F10008009830F000F101BC
:10012E000800AA30F000F1010800BA30F000F10129
:10013E000800EE30F000F1010800831203130030C6
:10014E003206031DAC280130310603198828003011
:10015E003206031DB4280230310603198F280030F1
:10016E003206031DBC2803303106031994280030D3
:10017E003206031DC42804303106031998280030B6
:10018E003206031DCC280530310603199C28003099
:10019E003206031DD428063031060319A0280800A4
:1001AE003F3083120313B2000630B3005B30B4004D
:1001BE004F30B5006630B6006D30B7007D30B800F8
:1001CE000730B9007F30BA006F30BB003108323EC5
:0801DE0084000008F000080095
:1001E600013083120313A0006E3083168F00073090
:1001F6009C008F309F008501803086008701880132
:1002060083122C10AF01B001AD01AE012C181229DA
:10021600023085002D08AA002E08AB0018290130EF
:1002260085002F08AA003008AB002D08B100D720A2
:10023600700887002F08B100D72070088600861B3B
:10024600302A0630B1000030B2002008B300B401F5
:1002560054207008A7007008B100B201872070080A
:10026600A8007108A900700888001530FB004B3003
:10027600FC00BE30FD00FD0B3E29FC0B3E29FB0BAE
:100286003E29000088010330FB008A30FC0055300F
:10029600FD00FD0B4C29FC0B4C29FB0B4C290000E7
:1002A60000002708AA070318AB0A2C185F292A089A
:1002B600AD002B08AE0063292A08AF002B08B0005A
:1002C6002D08B100D720700887002F08B100D7206D
:1002D60070088600280888000330FB008A30FC007E
:1002E6005530FD00FD0B7529FC0B7529FB0B752997
:1002F6000000000088010330FB008A30FC00553006
:10030600FD00FD0B8429FC0B8429FB0B84290000CE
:100316000000280888000330FB008A30FC005530B6
:10032600FD00FD0B9429FC0B9429FB0B942900007E
:10033600000088010630FB001330FC00AD30FD00E4
:10034600FD0BA329FC0BA329FB0BA329000000002E
:100356008030F00080302E067002031DB4292D086F
:10036600093C0318EB29A101A20180302206F00006
:1003760080307002031DC129033021020318E629CB
:1003860085010330FB008A30FC005530FD00FD0B73
:10039600CA29FC0BCA29FB0BCA290000000002303F
:1003A60085000330FB008A30FC005530FD00FD0B54
:1003B600DA29FC0BDA29FB0BDA2900000000A10A76
:1003C6000319A20AB8292C10AF01B001AD01AE0184
:1003D6008030F000803030067002031DF4292F08AB
:1003E600093C03182B2AA101A20180302206F00045
:1003F60080307002031D012A033021020318262AC9
:1004060085010330FB008A30FC005530FD00FD0BF2
:100416000A2AFC0B0A2AFB0B0A2A000000000130FC
:1004260085000330FB008A30FC005530FD00FD0BD3
:100436001A2AFC0B1A2AFB0B1A2A00000000A10A32
:100446000319A20AF8292C10AF01B001AD01AE01C3
:0E0456002C182F2A2C14302A2C100929312A98
:04400E00EA39430048
:00000001FF
